:04000000BFEF0EF050
:10100000003738392F3435362A3132332D23303DED
:101010002B4942524148454D2041484D454400200E
:101020002020202020200057454C434F4D45004CA8
:0D1030006F6164696E67002569002E000085
:10103E0025502610D8A426EF08F028EF08F02CEF44
:10104E0008F0000E2B6EF0EF08F025C00BF026C056
:10105E000CF055EC0EF02B6E010E25240B6E000ECF
:10106E0026200C6E55EC0EF02B6E000E2A6E000E26
:10107E00296E29502524276E2A502620286E020E0E
:10108E0027240B6E000E28200C6E55EC0EF0294A0C
:10109E002A2A2ABE5CEF08F02A5009E1040E295CC8
:1010AE00D8A05CEF08F05EEF08F040EF08F0340EC9
:1010BE00276EF20EE82EFED7272EFCD725C00FF096
:1010CE0026C010F0380E116EE3EC0DF00D0E276EEB
:1010DE00FC0EE82EFED7272EFCD725C00FF026C01B
:1010EE0010F0380E116EE3EC0DF0640EE82EFED704
:1010FE0025C00FF026C010F0380E116EE3EC0DF087
:10110E0025C00FF026C010F0010E116EE3EC0DF0AD
:10111E0025C00FF026C010F0020E116EE3EC0DF09C
:10112E0025C00FF026C010F0060E116EE3EC0DF088
:10113E0025C00FF026C010F00D0E116EE3EC0DF071
:10114E0025C00FF026C010F0280E116EE3EC0DF046
:10115E0025C00FF026C010F0800E116EE3EC0DF0DE
:10116E0025C01AF026C01BF0010E1C6E070E1D6E58
:10117E00270E1E6E100E1F6EBBEC0CF025C01AF063
:10118E0026C01BF0030E1C6E040E1D6E110E1E6E7D
:10119E00100E1F6EBBEC0CF0150E286E4B0E276E4C
:1011AE00BE0EE82EFED7272EFCD7282EFAD700D05B
:1011BE0025C00FF026C010F0010E116EE3EC0DF0FD
:1011CE0025C00FF026C010F0020E116EE3EC0DF0EC
:1011DE002B6E2B5012007DEC0FF020EEBCF010EEBB
:1011EE0030F0070EDBCFE3FFE806FCE220EEB4F0B2
:1011FE0010EE38F0070EDBCFE3FFE806FCE220EE40
:10120E00ACF010EE40F0070EDBCFE3FFE806FCE299
:10121E0020EEA4F010EE48F0070EDBCFE3FFE80659
:10122E00FCE220EE9CF010EE50F0070EDBCFE3FF59
:10123E00E806FCE220EE94F010EE58F0070EDBCF3D
:10124E00E3FFE806FCE26A0E246E000E256E010E28
:10125E00266E010E276E300E286E000E296E000EC1
:10126E002A6E0EEC0DF07E6E820E2F6EDE0EE82EC6
:10127E00FED72F2EFCD76A0E246E000E256E010EA1
:10128E00266E010E276E380E286E000E296E000E89
:10129E002A6E0EEC0DF07E6E820E2F6EDE0EE82E96
:1012AE00FED72F2EFCD76A0E246E000E256E010E71
:1012BE00266E010E276E400E286E000E296E000E51
:1012CE002A6E0EEC0DF07E6E820E2F6EDE0EE82E66
:1012DE00FED72F2EFCD76A0E246E000E256E010E41
:1012EE00266E010E276E480E286E000E296E000E19
:1012FE002A6E0EEC0DF07E6E820E2F6EDE0EE82E36
:10130E00FED72F2EFCD76A0E246E000E256E010E10
:10131E00266E010E276E500E286E000E296E000EE0
:10132E002A6E0EEC0DF07E6E820E2F6EDE0EE82E05
:10133E00FED72F2EFCD76A0E246E000E256E010EE0
:10134E00266E010E276E580E286E000E296E000EA8
:10135E002A6E0EEC0DF07E6E820E2F6EDE0EE82ED5
:10136E00FED72F2EFCD72AEF09F000EF00F0295000
:10137E002A10D8A4C5EF09F0C7EF09F0CBEF09F09A
:10138E00000E2E6E86EF0AF029C00BF02AC00CF06C
:10139E0055EC0EF02E6E010E29240B6E000E2A2037
:1013AE000C6E55EC0EF02E6E000E2D6E2D50292467
:1013BE002B6E000E2A202C6E020E2B240B6E000EAE
:1013CE002C200C6E55EC0EF02D2A070E2D64F2EF2C
:1013DE0009F0F4EF09F0DDEF09F0340E2B6EF20E8A
:1013EE00E82EFED72B2EFCD729C00EF02AC00FF008
:1013FE00380E106E57EC0DF00D0E2B6EFC0EE82E07
:10140E00FED72B2EFCD729C00EF02AC00FF0380EB7
:10141E00106E57EC0DF0640EE82EFED729C00EF0BC
:10142E002AC00FF0380E106E57EC0DF029C00EF0DA
:10143E002AC00FF0010E106E57EC0DF029C00EF001
:10144E002AC00FF0020E106E57EC0DF029C00EF0F0
:10145E002AC00FF0060E106E57EC0DF029C00EF0DC
:10146E002AC00FF00D0E106E57EC0DF029C00EF0C5
:10147E002AC00FF0380E106E57EC0DF029C00EF08A
:10148E002AC00FF0800E106E57EC0DF029C01EF022
:10149E002AC01FF0010E206E070E216E270E226E3F
:1014AE00100E236E68EC0CF029C01EF02AC01FF03F
:1014BE00030E206E040E216E110E226E100E236E80
:1014CE0068EC0CF0150E2C6E4B0E2B6EBE0EE82E2D
:1014DE00FED72B2EFCD72C2EFAD700D029C00EF01B
:1014EE002AC00FF0010E106E57EC0DF029C00EF051
:1014FE002AC00FF0020E106E57EC0DF02E6E2E500D
:10150E001200010E096E01500210D8B491EF0AF0CC
:10151E0093EF0AF0A4EF0AF001C0D9FF02C0DAFF80
:10152E00DF30E832E832070B036E070E0364A2EFDA
:10153E000AF0A4EF0AF007EF0BF0000E096E28EF89
:10154E000BF001C0D9FF02C0DAFFDF30E832E8321B
:10155E00070B036E010E046E032AB8EF0AF0D89043
:10156E000436032EB6EF0AF00450FF0A056E01C0D2
:10157E00D9FF02C0DAFFDF50070B066E0650020DD0
:10158E008A0EF324D96E000EF420DA6EDECF07F049
:10159E00DDCF08F007C0D9FF08C0DAFF0550DF160F
:1015AE0028EF0BF001C0D9FF02C0DAFFDF30E832BE
:1015BE00E832070B036E010E046E032AE9EF0AF000
:1015CE00D8900436032EE7EF0AF001C0D9FF02C00F
:1015DE00DAFFDF50070B056E0550020D8A0EF3245D
:1015EE00D96E000EF420DA6EDECF06F0DDCF07F0F6
:1015FE0006C0D9FF07C0DAFF0450DF1228EF0BF048
:10160E0001C0D9FF02C0DAFFDFBC10EF0BF013EF01
:10161E000BF0010E14EF0BF0000E036E046A045073
:10162E00000AD8B41DEF0BF0A4EF0AF00350000A25
:10163E00D8B4A8EF0AF0010AD8B4D9EF0AF0A4EF93
:10164E000AF009501200010E0A6E01500210D8B4B1
:10165E0033EF0BF035EF0BF046EF0BF001C0D9FF77
:10166E0002C0DAFFDF30E832E832070B046E070EF5
:10167E00046444EF0BF046EF0BF0A9EF0BF0000EF5
:10168E000A6EBEEF0BF001C0D9FF02C0DAFFDF30E9
:10169E00E832E832070B046E010E056E042A5AEF8B
:1016AE000BF0D8900536042E58EF0BF00550FF0ABC
:1016BE00066E01C0D9FF02C0DAFFDF50070B076EBE
:1016CE000750020D600EF324D96E000EF420DA6E70
:1016DE00DECF08F0DDCF09F008C0D9FF09C0DAFF70
:1016EE000650DF16BEEF0BF001C0D9FF02C0DAFFC5
:1016FE00DF30E832E832070B046E010E056E042A65
:10170E008BEF0BF0D8900536042E89EF0BF001C04D
:10171E00D9FF02C0DAFFDF50070B066E0650020D2E
:10172E00600EF324D96E000EF420DA6EDECF07F0D1
:10173E00DDCF08F007C0D9FF08C0DAFF0550DF1271
:10174E00BEEF0BF00350046E056A0550000AD8B4C4
:10175E00B3EF0BF046EF0BF00450000AD8B44AEF8B
:10176E000BF0010AD8B47BEF0BF046EF0BF00A50EA
:10177E001200010E1D6E1A06F5EF0BF017C00EF0DB
:10178E0018C00FF01A50800F106E57EC0DF01D6E32
:10179E0012EF0CF017C00EF018C00FF01A50C00F59
:1017AE00106E57EC0DF01D6E12EF0CF017C00EF010
:1017BE0018C00FF01A50940F106E57EC0DF01D6EEE
:1017CE0012EF0CF017C00EF018C00FF01A50D40F15
:1017DE00106E57EC0DF01D6E12EF0CF019501B6EC3
:1017EE001C6A1C50000AD8B4FFEF0BF012EF0CF07D
:1017FE001B50010AD8B4C5EF0BF0030AD8B4D1EFD1
:10180E000BF0010AD8B4DDEF0BF0070AD8B4E9EFFC
:10181E000BF012EF0CF01D501200010E196E160691
:10182E0049EF0CF013C00FF014C010F01650800FDB
:10183E00116EE3EC0DF0196E66EF0CF013C00FF0A5
:10184E0014C010F01650C00F116EE3EC0DF0196EAF
:10185E0066EF0CF013C00FF014C010F01650940F7A
:10186E00116EE3EC0DF0196E66EF0CF013C00FF075
:10187E0014C010F01650D40F116EE3EC0DF0196E6B
:10188E0066EF0CF01550176E186A1850000AD8B48F
:10189E0053EF0CF066EF0CF01750010AD8B419EFA5
:1018AE000CF0030AD8B425EF0CF0010AD8B431EFCE
:1018BE000CF0070AD8B43DEF0CF066EF0CF019509F
:1018CE0012001E501F10D8B46FEF0CF071EF0CF019
:1018DE007AEF0CF022502310D8A478EF0CF07AEFA8
:1018EE000CF07EEF0CF0000E266EB9EF0CF01EC061
:1018FE0017F01FC018F020C019F021C01AF0C0EC6C
:10190E000BF0266E000E286E000E276EA5EF0CF063
:10191E001EC00EF01FC00FF027502224246E285038
:10192E002320256E24C0F6FF25C0F7FF0800F5CF53
:10193E0010F09DEC0DF0266E274A282A27502224FF
:10194E00246E28502320256E24C0F6FF25C0F7FFF5
:10195E000800F5500009D8A4B7EF0CF0B9EF0CF061
:10196E008FEF0CF0265012001A501B10D8B4C2EF95
:10197E000CF0C4EF0CF0CDEF0CF01E501F10D8A4DD
:10198E00CBEF0CF0CDEF0CF0D1EF0CF0000E226E81
:10199E000CEF0DF01AC013F01BC014F01CC015F0A4
:1019AE001DC016F014EC0CF0226E000E246E000E0C
:1019BE00236EF8EF0CF01AC00FF01BC010F023507E
:1019CE001E24206E24501F20216E20C0F6FF21C041
:1019DE00F7FF0800F5CF11F01CEC0EF0226E234A33
:1019EE00242A23501E24206E24501F20216E20C036
:1019FE00F6FF21C0F7FF0800F5500009D8A40AEF42
:101A0E000DF00CEF0DF0E2EF0CF02250120024500E
:101A1E002510D8A415EF0DF017EF0DF01BEF0DF0FC
:101A2E00000E2B6E55EF0DF024C00EF025C00FF0FA
:101A3E002A50080DF350400F106E57EC0DF0000EAB
:101A4E002D6E000E2C6E24C00EF025C00FF02C5003
:101A5E002824D96E2D502920DA6EDF50106E9DECA1
:101A6E000DF02C4A2D2A2DBE46EF0DF02D5009E11A
:101A7E00080E2C5CD8A046EF0DF048EF0DF02AEFC3
:101A8E000DF024C01EF025C01FF026C020F027C088
:101A9E0021F02AC022F0E8EC0EF02B6E2B50120033
:101AAE000E500F10D8A45EEF0DF060EF0DF064EF46
:101ABE000DF0000E156E9BEF0DF00EC001F00FC075
:101ACE0002F0000E036E2AEC0BF0000E166E16508E
:101ADE000E24116E000E0F20126E020E1124016ED6
:101AEE00000E1220026E16C013F010C014F0132A4E
:101AFE0083EF0DF0D8901432132E81EF0DF01450A9
:101B0E00010B036E2AEC0BF0162A070E166492EFE9
:101B1E000DF094EF0DF06EEF0DF00EC00BF00FC048
:101B2E000CF02DEC0FF0156E155012000E500F101C
:101B3E00D8A4A4EF0DF0A6EF0DF0AAEF0DF0000E55
:101B4E00156EE1EF0DF00EC001F00FC002F0010EA8
:101B5E00036E2AEC0BF0000E166E16500E24116E4C
:101B6E00000E0F20126E020E1124016E000E1220B6
:101B7E00026E16C013F010C014F0132AC9EF0DF048
:101B8E00D8901432132EC7EF0DF01450010B036EC4
:101B9E002AEC0BF0162A070E1664D8EF0DF0DAEFCA
:101BAE000DF0B4EF0DF00EC00BF00FC00CF02DECDD
:101BBE000FF0156E155012000F501010D8A4EAEF4A
:101BCE000DF0ECEF0DF0F0EF0DF0000E126E1AEFBF
:101BDE000EF00FC001F010C002F0000E036E2AECE2
:101BEE000BF0126E0FC00BF010C00CF011380F0B73
:101BFE000D6E8BEC0EF0126E0FC00BF010C00CF0D1
:101C0E0048EC0FF0126E0FC00BF010C00CF011C0AC
:101C1E000DF08BEC0EF0126E0FC00BF010C00CF02E
:101C2E0048EC0FF0126E125012000F501010D8A484
:101C3E0023EF0EF025EF0EF029EF0EF0000E126ED0
:101C4E0053EF0EF00FC001F010C002F0010E036E44
:101C5E002AEC0BF0126E0FC00BF010C00CF0113806
:101C6E000F0B0D6E8BEC0EF0126E0FC00BF010C042
:101C7E000CF048EC0FF0126E0FC00BF010C00CF011
:101C8E0011C00DF08BEC0EF0126E0FC00BF010C0E9
:101C9E000CF048EC0FF0126E125012000B500C109C
:101CAE00D8B45CEF0EF05EEF0EF06FEF0EF00BC0DF
:101CBE00D9FF0CC0DAFFDF30E832E832070B0D6EC9
:101CCE00070E0D646DEF0EF06FEF0EF073EF0EF06A
:101CDE00000E0E6E89EF0EF00BC001F00CC002F07C
:101CEE0088EC0AF00E6E0BC001F00CC002F00BC0B7
:101CFE00D9FF0CC0DAFF000EDFBE010E036E2AEC18
:101D0E000BF00E6E0E501200020E0B24016E000E22
:101D1E000C20026E0D50010B036E2AEC0BF0030E1D
:101D2E000B24016E000E0C20026ED8900D30010BAC
:101D3E00036E2AEC0BF0040E0B24016E000E0C2029
:101D4E00026E0D40E8423F0B010B036E2AEC0BF0C6
:101D5E00050E0B24016E000E0C20026E0D38E846A7
:101D6E001F0B010B036E2AEC0BF00E6E0E501200C1
:101D7E00160EF66E1E0EF76E000EF86E00EE80F06A
:101D8E0010EE44F00900F5CFEEFFE550E150FAE118
:101D9E00C60EF66E1E0EF76E000EF86E00EE60F0BA
:101DAE0010EE1AF00900F5CFEEFFE550E150FAE122
:101DBE007D6A7C6A7B6A7A6A000EF86E0001F2EF29
:101DCE0008F01E501F10D8A4EFEF0EF0F1EF0EF03A
:101DDE00F5EF0EF0000E236E09EF0FF01EC017F098
:101DEE001FC018F020C019F021C01AF0C0EC0BF083
:101DFE00236E1EC00EF01FC00FF022C010F09DEC1F
:101E0E000DF0236E23501200800F810F820F830F6F
:101E1E00840F920F930F940F950F960F0E0E1F1F98
:101E2E001F1F1F000E0A1F1F1F1F1F000E0A1B1F42
:101E3E001F1F1F000E0A1B111F1F1F000E0A1B1152
:101E4E00111F1F000E0A1B1111111F00010E0B2472
:101E5E00016E000E0C20026E010E036E2AEC0BF0CA
:101E6E00030EE82EFED700F0010E0B24016E000EBD
:101E7E000C20026E000E036E2AEC0BF00D6E0D5050
:101E8E001200010E0B24016E000E0C20026E010ECC
:101E9E00036E2AEC0BF0030EE82EFED700F0010EB7
:101EAE000B24016E000E0C20026E000E036E2AEC47
:101EBE000BF00D6E0D501200890F8A0F8B0F8C0FC9
:101ECE008D0F020A121A222A323A030B131B232BEE
:101EDE00333B740E256E000E266E1FEC08F06A0E54
:101EEE00296E000E2A6EBEEC09F0120070EC0FF097
:021EFE001200D0
:020000040020DA
:08000000FFFFFFFFFFFFFFFF00
:020000040030CA
:0E000000FF02091EFF8181FF0FC00FE00F40BD
:00000001FF
